:020000040800F2
:100000000808002055010008CF000008CF000008B4
:10001000CF000008CF000008CF000008000000005B
:10002000000000000000000000000000CF000008F9
:10003000CF00000800000000CF000008CF0000083B
:100040001448006850F00400124908601248006823
:1000500030F47000104908600F48006850F4001038
:100060000D4908600D480068016851F400510160B5
:1000700000200B49884201DA401CFAE70748006873
:10008000016831F400510160002005498842E9DA35
:10009000401CFAE71810024004080140000000204C
:1000A00020A107000EE002684368024408305FEABE
:1000B000C37C44BF4B445B1E52F804CB43F804CBD3
:1000C000091FF9D150F8041B0029ECD17047FEE755
:1000D00010B5074979441831064C7C44163404E0C5
:1000E0000A68081D114488470146A142F8D110BD95
:1000F0000800000018000000ADFFFFFF0400000032
:1001000070000000000000200000000000F00DF86A
:10011000002801D0FFF7DCFFAFF300800020AFF331
:100120000080FFF78DFF00F002F80120704700F01B
:1001300001B800000746384600F002F8FBE700006F
:1001400080B5AFF30080024A11001820ABBEFBE778
:10015000260002000548014603B4684680F309887A
:10016000AFF30080AFF30080FFF7D0FFA5EDF5FE01
:040170000C08014036
:040000050800015599
:00000001FF
